{
  "_format": "hh-sol-artifact-1",
  "contractName": "WorkshopManager",
  "sourceName": "contracts/WorkshopManager.sol",
  "abi": [
    {
      "inputs": [],
      "stateMutability": "nonpayable",
      "type": "constructor"
    },
    {
      "inputs": [
        {
          "internalType": "string",
          "name": "title",
          "type": "string"
        },
        {
          "internalType": "string",
          "name": "author",
          "type": "string"
        }
      ],
      "name": "add",
      "outputs": [],
      "stateMutability": "nonpayable",
      "type": "function"
    },
    {
      "inputs": [],
      "name": "getWorkshops",
      "outputs": [
        {
          "components": [
            {
              "internalType": "string",
              "name": "title",
              "type": "string"
            },
            {
              "internalType": "string",
              "name": "author",
              "type": "string"
            }
          ],
          "internalType": "struct WorkshopManager.Workshop[]",
          "name": "",
          "type": "tuple[]"
        }
      ],
      "stateMutability": "view",
      "type": "function"
    },
    {
      "inputs": [],
      "name": "manager",
      "outputs": [
        {
          "internalType": "address",
          "name": "",
          "type": "address"
        }
      ],
      "stateMutability": "view",
      "type": "function"
    },
    {
      "inputs": [],
      "name": "name",
      "outputs": [
        {
          "internalType": "string",
          "name": "",
          "type": "string"
        }
      ],
      "stateMutability": "view",
      "type": "function"
    },
    {
      "inputs": [],
      "name": "printName",
      "outputs": [
        {
          "internalType": "string",
          "name": "",
          "type": "string"
        }
      ],
      "stateMutability": "view",
      "type": "function"
    },
    {
      "inputs": [
        {
          "internalType": "uint256",
          "name": "",
          "type": "uint256"
        }
      ],
      "name": "workshops",
      "outputs": [
        {
          "internalType": "string",
          "name": "title",
          "type": "string"
        },
        {
          "internalType": "string",
          "name": "author",
          "type": "string"
        }
      ],
      "stateMutability": "view",
      "type": "function"
    }
  ],
  "bytecode": "0x60c06040526012608081905271496e74726f20746f206574686572732e6a7360701b60a09081526100339160009190610058565b5034801561004057600080fd5b50600180546001600160a01b0319163317905561012c565b828054610064906100f1565b90600052602060002090601f01602090048101928261008657600085556100cc565b82601f1061009f57805160ff19168380011785556100cc565b828001600101855582156100cc579182015b828111156100cc5782518255916020019190600101906100b1565b506100d89291506100dc565b5090565b5b808211156100d857600081556001016100dd565b60028104600182168061010557607f821691505b6020821081141561012657634e487b7160e01b600052602260045260246000fd5b50919050565b6108c88061013b6000396000f3fe608060405234801561001057600080fd5b50600436106100625760003560e01c806306fdde0314610067578063481c6a75146100855780639df8b2381461009a578063bf7297a2146100af578063d422ea60146100b7578063ebdf86ca146100d8575b600080fd5b61006f6100ed565b60405161007c919061080f565b60405180910390f35b61008d61017b565b60405161007c9190610779565b6100a261018a565b60405161007c919061078d565b61006f61030d565b6100ca6100c5366004610716565b61039f565b60405161007c929190610829565b6100eb6100e63660046106ad565b6104e3565b005b600080546100fa90610857565b80601f016020809104026020016040519081016040528092919081815260200182805461012690610857565b80156101735780601f1061014857610100808354040283529160200191610173565b820191906000526020600020905b81548152906001019060200180831161015657829003601f168201915b505050505081565b6001546001600160a01b031681565b60606002805480602002602001604051908101604052809291908181526020016000905b8282101561030457838290600052602060002090600202016040518060400160405290816000820180546101e190610857565b80601f016020809104026020016040519081016040528092919081815260200182805461020d90610857565b801561025a5780601f1061022f5761010080835404028352916020019161025a565b820191906000526020600020905b81548152906001019060200180831161023d57829003601f168201915b5050505050815260200160018201805461027390610857565b80601f016020809104026020016040519081016040528092919081815260200182805461029f90610857565b80156102ec5780601f106102c1576101008083540402835291602001916102ec565b820191906000526020600020905b8154815290600101906020018083116102cf57829003601f168201915b505050505081525050815260200190600101906101ae565b50505050905090565b60606000805461031c90610857565b80601f016020809104026020016040519081016040528092919081815260200182805461034890610857565b80156103955780601f1061036a57610100808354040283529160200191610395565b820191906000526020600020905b81548152906001019060200180831161037857829003601f168201915b5050505050905090565b600281815481106103af57600080fd5b90600052602060002090600202016000915090508060000180546103d290610857565b80601f01602080910402602001604051908101604052809291908181526020018280546103fe90610857565b801561044b5780601f106104205761010080835404028352916020019161044b565b820191906000526020600020905b81548152906001019060200180831161042e57829003601f168201915b50505050509080600101805461046090610857565b80601f016020809104026020016040519081016040528092919081815260200182805461048c90610857565b80156104d95780601f106104ae576101008083540402835291602001916104d9565b820191906000526020600020905b8154815290600101906020018083116104bc57829003601f168201915b5050505050905082565b6040805160606020601f8701819004028201810183529181018581526000928291908890889081908501838280828437600092019190915250505090825250604080516020601f87018190048102820181019092528581529181019190869086908190840183828082843760009201829052509390945250506002805460018101825591819052835180519495508594929091027f405787fa12a823e0f2b7631cc41b3ba8828b3321ca811111fa75cd3aa3bb5ace0192506105aa918391602001906105cd565b5060208281015180516105c392600185019201906105cd565b5050505050505050565b8280546105d990610857565b90600052602060002090601f0160209004810192826105fb5760008555610641565b82601f1061061457805160ff1916838001178555610641565b82800160010185558215610641579182015b82811115610641578251825591602001919060010190610626565b5061064d929150610651565b5090565b5b8082111561064d5760008155600101610652565b60008083601f840112610677578182fd5b50813567ffffffffffffffff81111561068e578182fd5b6020830191508360208285010111156106a657600080fd5b9250929050565b600080600080604085870312156106c2578384fd5b843567ffffffffffffffff808211156106d9578586fd5b6106e588838901610666565b909650945060208701359150808211156106fd578384fd5b5061070a87828801610666565b95989497509550505050565b600060208284031215610727578081fd5b5035919050565b60008151808452815b8181101561075357602081850181015186830182015201610737565b818111156107645782602083870101525b50601f01601f19169290920160200192915050565b6001600160a01b0391909116815260200190565b60208082528251828201819052600091906040908185019080840286018301878501865b8381101561080157888303603f19018552815180518785526107d58886018261072e565b91890151858303868b01529190506107ed818361072e565b9689019694505050908601906001016107b1565b509098975050505050505050565b600060208252610822602083018461072e565b9392505050565b60006040825261083c604083018561072e565b828103602084015261084e818561072e565b95945050505050565b60028104600182168061086b57607f821691505b6020821081141561088c57634e487b7160e01b600052602260045260246000fd5b5091905056fea26469706673582212209575b82f6f776178f7e96ba9944ec67c3e72d0b3b466985f8e4eb0df9b16bc2b64736f6c63430008000033",
  "linkReferences": {},
  "deployedLinkReferences": {}
}