{
  "_format": "hh-sol-artifact-1",
  "contractName": "WorkshopManager",
  "sourceName": "contracts/WorkshopManager.sol",
  "abi": [
    {
      "inputs": [],
      "stateMutability": "nonpayable",
      "type": "constructor"
    },
    {
      "inputs": [
        {
          "internalType": "string",
          "name": "title",
          "type": "string"
        },
        {
          "internalType": "string",
          "name": "author",
          "type": "string"
        }
      ],
      "name": "add",
      "outputs": [],
      "stateMutability": "nonpayable",
      "type": "function"
    },
    {
      "inputs": [],
      "name": "getWorkshops",
      "outputs": [
        {
          "components": [
            {
              "internalType": "string",
              "name": "title",
              "type": "string"
            },
            {
              "internalType": "string",
              "name": "author",
              "type": "string"
            }
          ],
          "internalType": "struct WorkshopManager.Workshop[]",
          "name": "",
          "type": "tuple[]"
        }
      ],
      "stateMutability": "view",
      "type": "function"
    },
    {
      "inputs": [],
      "name": "manager",
      "outputs": [
        {
          "internalType": "address",
          "name": "",
          "type": "address"
        }
      ],
      "stateMutability": "view",
      "type": "function"
    },
    {
      "inputs": [],
      "name": "name",
      "outputs": [
        {
          "internalType": "string",
          "name": "",
          "type": "string"
        }
      ],
      "stateMutability": "view",
      "type": "function"
    },
    {
      "inputs": [],
      "name": "printName",
      "outputs": [
        {
          "internalType": "string",
          "name": "",
          "type": "string"
        }
      ],
      "stateMutability": "view",
      "type": "function"
    },
    {
      "inputs": [
        {
          "internalType": "uint256",
          "name": "",
          "type": "uint256"
        }
      ],
      "name": "workshops",
      "outputs": [
        {
          "internalType": "string",
          "name": "title",
          "type": "string"
        },
        {
          "internalType": "string",
          "name": "author",
          "type": "string"
        }
      ],
      "stateMutability": "view",
      "type": "function"
    }
  ],
  "bytecode": "0x60806040526040518060400160405280601281526020017f496e74726f20746f206574686572732e6a7300000000000000000000000000008152506000908051906020019061004f9291906100a3565b5034801561005c57600080fd5b5033600160006101000a81548173ffffffffffffffffffffffffffffffffffffffff021916908373ffffffffffffffffffffffffffffffffffffffff1602179055506101a7565b8280546100af90610146565b90600052602060002090601f0160209004810192826100d15760008555610118565b82601f106100ea57805160ff1916838001178555610118565b82800160010185558215610118579182015b828111156101175782518255916020019190600101906100fc565b5b5090506101259190610129565b5090565b5b8082111561014257600081600090555060010161012a565b5090565b6000600282049050600182168061015e57607f821691505b6020821081141561017257610171610178565b5b50919050565b7f4e487b7100000000000000000000000000000000000000000000000000000000600052602260045260246000fd5b610b6180620001b76000396000f3fe608060405234801561001057600080fd5b50600436106100625760003560e01c806306fdde0314610067578063481c6a75146100855780639df8b238146100a3578063bf7297a2146100c1578063d422ea60146100df578063ebdf86ca14610110575b600080fd5b61006f61012c565b60405161007c9190610974565b60405180910390f35b61008d6101ba565b60405161009a9190610937565b60405180910390f35b6100ab6101e0565b6040516100b89190610952565b60405180910390f35b6100c9610363565b6040516100d69190610974565b60405180910390f35b6100f960048036038101906100f491906107c0565b6103f5565b604051610107929190610996565b60405180910390f35b61012a6004803603810190610125919061074b565b610539565b005b6000805461013990610aa2565b80601f016020809104026020016040519081016040528092919081815260200182805461016590610aa2565b80156101b25780601f10610187576101008083540402835291602001916101b2565b820191906000526020600020905b81548152906001019060200180831161019557829003601f168201915b505050505081565b600160009054906101000a900473ffffffffffffffffffffffffffffffffffffffff1681565b60606002805480602002602001604051908101604052809291908181526020016000905b8282101561035a578382906000526020600020906002020160405180604001604052908160008201805461023790610aa2565b80601f016020809104026020016040519081016040528092919081815260200182805461026390610aa2565b80156102b05780601f10610285576101008083540402835291602001916102b0565b820191906000526020600020905b81548152906001019060200180831161029357829003601f168201915b505050505081526020016001820180546102c990610aa2565b80601f01602080910402602001604051908101604052809291908181526020018280546102f590610aa2565b80156103425780601f1061031757610100808354040283529160200191610342565b820191906000526020600020905b81548152906001019060200180831161032557829003601f168201915b50505050508152505081526020019060010190610204565b50505050905090565b60606000805461037290610aa2565b80601f016020809104026020016040519081016040528092919081815260200182805461039e90610aa2565b80156103eb5780601f106103c0576101008083540402835291602001916103eb565b820191906000526020600020905b8154815290600101906020018083116103ce57829003601f168201915b5050505050905090565b6002818154811061040557600080fd5b906000526020600020906002020160009150905080600001805461042890610aa2565b80601f016020809104026020016040519081016040528092919081815260200182805461045490610aa2565b80156104a15780601f10610476576101008083540402835291602001916104a1565b820191906000526020600020905b81548152906001019060200180831161048457829003601f168201915b5050505050908060010180546104b690610aa2565b80601f01602080910402602001604051908101604052809291908181526020018280546104e290610aa2565b801561052f5780601f106105045761010080835404028352916020019161052f565b820191906000526020600020905b81548152906001019060200180831161051257829003601f168201915b5050505050905082565b6000604051806040016040528086868080601f016020809104026020016040519081016040528093929190818152602001838380828437600081840152601f19601f82011690508083019250505050505050815260200184848080601f016020809104026020016040519081016040528093929190818152602001838380828437600081840152601f19601f82011690508083019250505050505050815250905060028190806001815401808255809150506001900390600052602060002090600202016000909190919091506000820151816000019080519060200190610622929190610649565b50602082015181600101908051906020019061063f929190610649565b5050505050505050565b82805461065590610aa2565b90600052602060002090601f01602090048101928261067757600085556106be565b82601f1061069057805160ff19168380011785556106be565b828001600101855582156106be579182015b828111156106bd5782518255916020019190600101906106a2565b5b5090506106cb91906106cf565b5090565b5b808211156106e85760008160009055506001016106d0565b5090565b60008083601f8401126106fe57600080fd5b8235905067ffffffffffffffff81111561071757600080fd5b60208301915083600182028301111561072f57600080fd5b9250929050565b60008135905061074581610b14565b92915050565b6000806000806040858703121561076157600080fd5b600085013567ffffffffffffffff81111561077b57600080fd5b610787878288016106ec565b9450945050602085013567ffffffffffffffff8111156107a657600080fd5b6107b2878288016106ec565b925092505092959194509250565b6000602082840312156107d257600080fd5b60006107e084828501610736565b91505092915050565b60006107f583836108f3565b905092915050565b61080681610a33565b82525050565b6000610817826109dd565b6108218185610a00565b935083602082028501610833856109cd565b8060005b8581101561086f578484038952815161085085826107e9565b945061085b836109f3565b925060208a01995050600181019050610837565b50829750879550505050505092915050565b600061088c826109e8565b6108968185610a11565b93506108a6818560208601610a6f565b6108af81610b03565b840191505092915050565b60006108c5826109e8565b6108cf8185610a22565b93506108df818560208601610a6f565b6108e881610b03565b840191505092915050565b600060408301600083015184820360008601526109108282610881565b9150506020830151848203602086015261092a8282610881565b9150508091505092915050565b600060208201905061094c60008301846107fd565b92915050565b6000602082019050818103600083015261096c818461080c565b905092915050565b6000602082019050818103600083015261098e81846108ba565b905092915050565b600060408201905081810360008301526109b081856108ba565b905081810360208301526109c481846108ba565b90509392505050565b6000819050602082019050919050565b600081519050919050565b600081519050919050565b6000602082019050919050565b600082825260208201905092915050565b600082825260208201905092915050565b600082825260208201905092915050565b6000610a3e82610a45565b9050919050565b600073ffffffffffffffffffffffffffffffffffffffff82169050919050565b6000819050919050565b60005b83811015610a8d578082015181840152602081019050610a72565b83811115610a9c576000848401525b50505050565b60006002820490506001821680610aba57607f821691505b60208210811415610ace57610acd610ad4565b5b50919050565b7f4e487b7100000000000000000000000000000000000000000000000000000000600052602260045260246000fd5b6000601f19601f8301169050919050565b610b1d81610a65565b8114610b2857600080fd5b5056fea2646970667358221220e45a95847ef42afd2bc408be8740ccb53061e98f912b3fb4f8f5997b8db65bae64736f6c63430008030033",
  "linkReferences": {},
  "deployedLinkReferences": {}
}