{
  "_format": "hh-sol-artifact-1",
  "contractName": "WorkshopManager",
  "sourceName": "contracts/WorkshopManager.sol",
  "abi": [
    {
      "inputs": [],
      "stateMutability": "nonpayable",
      "type": "constructor"
    },
    {
      "inputs": [
        {
          "internalType": "string",
          "name": "title",
          "type": "string"
        },
        {
          "internalType": "string",
          "name": "author",
          "type": "string"
        }
      ],
      "name": "add",
      "outputs": [],
      "stateMutability": "nonpayable",
      "type": "function"
    },
    {
      "inputs": [],
      "name": "getWorkshops",
      "outputs": [
        {
          "components": [
            {
              "internalType": "string",
              "name": "title",
              "type": "string"
            },
            {
              "internalType": "string",
              "name": "author",
              "type": "string"
            }
          ],
          "internalType": "struct WorkshopManager.Workshop[]",
          "name": "",
          "type": "tuple[]"
        }
      ],
      "stateMutability": "view",
      "type": "function"
    },
    {
      "inputs": [],
      "name": "manager",
      "outputs": [
        {
          "internalType": "address",
          "name": "",
          "type": "address"
        }
      ],
      "stateMutability": "view",
      "type": "function"
    },
    {
      "inputs": [],
      "name": "name",
      "outputs": [
        {
          "internalType": "string",
          "name": "",
          "type": "string"
        }
      ],
      "stateMutability": "view",
      "type": "function"
    },
    {
      "inputs": [],
      "name": "printName",
      "outputs": [
        {
          "internalType": "string",
          "name": "",
          "type": "string"
        }
      ],
      "stateMutability": "view",
      "type": "function"
    }
  ],
  "bytecode": "0x60806040526040518060400160405280601281526020017f496e74726f20746f206574686572732e6a7300000000000000000000000000008152506000908051906020019061004f9291906100a3565b5034801561005c57600080fd5b5033600160006101000a81548173ffffffffffffffffffffffffffffffffffffffff021916908373ffffffffffffffffffffffffffffffffffffffff1602179055506101a7565b8280546100af90610146565b90600052602060002090601f0160209004810192826100d15760008555610118565b82601f106100ea57805160ff1916838001178555610118565b82800160010185558215610118579182015b828111156101175782518255916020019190600101906100fc565b5b5090506101259190610129565b5090565b5b8082111561014257600081600090555060010161012a565b5090565b6000600282049050600182168061015e57607f821691505b6020821081141561017257610171610178565b5b50919050565b7f4e487b7100000000000000000000000000000000000000000000000000000000600052602260045260246000fd5b61094b806101b66000396000f3fe608060405234801561001057600080fd5b50600436106100575760003560e01c806306fdde031461005c578063481c6a751461007a5780639df8b23814610098578063bf7297a2146100b6578063ebdf86ca146100d4575b600080fd5b6100646100f0565b60405161007191906107b6565b60405180910390f35b61008261017e565b60405161008f9190610779565b60405180910390f35b6100a06101a4565b6040516100ad9190610794565b60405180910390f35b6100be610327565b6040516100cb91906107b6565b60405180910390f35b6100ee60048036038101906100e991906105b6565b6103b9565b005b600080546100fd906108a3565b80601f0160208091040260200160405190810160405280929190818152602001828054610129906108a3565b80156101765780601f1061014b57610100808354040283529160200191610176565b820191906000526020600020905b81548152906001019060200180831161015957829003601f168201915b505050505081565b600160009054906101000a900473ffffffffffffffffffffffffffffffffffffffff1681565b60606002805480602002602001604051908101604052809291908181526020016000905b8282101561031e57838290600052602060002090600202016040518060400160405290816000820180546101fb906108a3565b80601f0160208091040260200160405190810160405280929190818152602001828054610227906108a3565b80156102745780601f1061024957610100808354040283529160200191610274565b820191906000526020600020905b81548152906001019060200180831161025757829003601f168201915b5050505050815260200160018201805461028d906108a3565b80601f01602080910402602001604051908101604052809291908181526020018280546102b9906108a3565b80156103065780601f106102db57610100808354040283529160200191610306565b820191906000526020600020905b8154815290600101906020018083116102e957829003601f168201915b505050505081525050815260200190600101906101c8565b50505050905090565b606060008054610336906108a3565b80601f0160208091040260200160405190810160405280929190818152602001828054610362906108a3565b80156103af5780601f10610384576101008083540402835291602001916103af565b820191906000526020600020905b81548152906001019060200180831161039257829003601f168201915b5050505050905090565b6000604051806040016040528086868080601f016020809104026020016040519081016040528093929190818152602001838380828437600081840152601f19601f82011690508083019250505050505050815260200184848080601f016020809104026020016040519081016040528093929190818152602001838380828437600081840152601f19601f820116905080830192505050505050508152509050600281908060018154018082558091505060019003906000526020600020906002020160009091909190915060008201518160000190805190602001906104a29291906104c9565b5060208201518160010190805190602001906104bf9291906104c9565b5050505050505050565b8280546104d5906108a3565b90600052602060002090601f0160209004810192826104f7576000855561053e565b82601f1061051057805160ff191683800117855561053e565b8280016001018555821561053e579182015b8281111561053d578251825591602001919060010190610522565b5b50905061054b919061054f565b5090565b5b80821115610568576000816000905550600101610550565b5090565b60008083601f84011261057e57600080fd5b8235905067ffffffffffffffff81111561059757600080fd5b6020830191508360018202830111156105af57600080fd5b9250929050565b600080600080604085870312156105cc57600080fd5b600085013567ffffffffffffffff8111156105e657600080fd5b6105f28782880161056c565b9450945050602085013567ffffffffffffffff81111561061157600080fd5b61061d8782880161056c565b925092505092959194509250565b60006106378383610735565b905092915050565b6106488161083e565b82525050565b6000610659826107e8565b610663818561080b565b935083602082028501610675856107d8565b8060005b858110156106b15784840389528151610692858261062b565b945061069d836107fe565b925060208a01995050600181019050610679565b50829750879550505050505092915050565b60006106ce826107f3565b6106d8818561081c565b93506106e8818560208601610870565b6106f181610904565b840191505092915050565b6000610707826107f3565b610711818561082d565b9350610721818560208601610870565b61072a81610904565b840191505092915050565b6000604083016000830151848203600086015261075282826106c3565b9150506020830151848203602086015261076c82826106c3565b9150508091505092915050565b600060208201905061078e600083018461063f565b92915050565b600060208201905081810360008301526107ae818461064e565b905092915050565b600060208201905081810360008301526107d081846106fc565b905092915050565b6000819050602082019050919050565b600081519050919050565b600081519050919050565b6000602082019050919050565b600082825260208201905092915050565b600082825260208201905092915050565b600082825260208201905092915050565b600061084982610850565b9050919050565b600073ffffffffffffffffffffffffffffffffffffffff82169050919050565b60005b8381101561088e578082015181840152602081019050610873565b8381111561089d576000848401525b50505050565b600060028204905060018216806108bb57607f821691505b602082108114156108cf576108ce6108d5565b5b50919050565b7f4e487b7100000000000000000000000000000000000000000000000000000000600052602260045260246000fd5b6000601f19601f830116905091905056fea26469706673582212208a839ad366230384225d321a25cb611edf450fd1ee647f095578c5551efcf15564736f6c63430008030033",
  "linkReferences": {},
  "deployedLinkReferences": {}
}